:100000000C942E000C943A020C943A020C943A028E
:100010000C943A020C943A020C943A020C943A0270
:100020000C943A020C943A020C943A020C943A0260
:100030000C943A020C943A020C943A020C943A0250
:100040000C943A020C943A020C943A020C943A0240
:100050000C943A02006000780004820011241FBE54
:10006000CFE5D8E0DEBFCDBFE4E5F0E040E017C06B
:10007000B591A59135912591059107FD0CC09591FC
:100080008591EF01F92FE82F05900D92A217B30784
:10009000D9F7FE0104C01D92A217B307E1F7EB35B3
:1000A000F40731F70E941C020C942902F894FFCF48
:1000B000CF92DF92EF92CF93DF93611571058105A7
:1000C00019F44A3008F04EC0D42F6B01E82E40E0FE
:1000D0000E94B201C82F8E2DB6016F5F7F4F8F4FE8
:1000E00041E00E94B201C82B8E2DB6016E5F7F4F9A
:1000F0008F4F41E00E94B201C82B8E2DB6016D5F7B
:100100007F4F8F4F41E00E94B201C82B4D2F4170AD
:100110008E2DB6016C5F7F4F8F4F0E94B201C82BAE
:10012000D1FB442740F98E2DB6016B5F7F4F8F4F77
:100130000E94B201C82BD2FB442740F98E2DB60194
:100140006A5F7F4F8F4F0E94B201C82BD3FB4427B9
:1001500040F98E2DB601695F7F4F8F4F0E94B2012B
:100160008C2B01C080E0DF91CF91EF90DF90CF909A
:020170000895F0
:10017200CF93DF93A82FCB010097A10509F449C0C3
:10018200FC012491A7FD2081269526952770FC016C
:100192003491A7FD308135FB442740F935FF1FC05C
:1001A2004130C9F53370E32FF0E0EE0FFF1FE8593D
:1001B200FF4F0190F081E02D608141E050E0EA01C3
:1001C20002C0CC0FDD1F2A95E2F79E01209526235F
:1001D2002083BC018A2F0E94100181E01DC0FC0116
:1001E2008491A7FD80818370E82FF0E0EE0FFF1F5E
:1001F200E859FF4F0190F081E02D308181E090E0DD
:1002020002C0880F991F2A95E2F7832B808381E031
:0E02120003C080E001C080E0DF91CF9108952D
:10022000A82FCB010097A10509F44AC0FC01249135
:10023000A7FD2081269526952770FC013491A7FD06
:10024000308135FF3FC037FB332730F9332319F0B6
:100250003130E1F039C0FC018491A7FD80818370C9
:10026000E82FF0E0EE0FFF1FE05AFF4F0190F08102
:10027000E02D308181E090E002C0880F991F2A951F
:10028000E2F780958323808381E00895FC018491C7
:10029000A7FD80818370E82FF0E0EE0FFF1FE05A8A
:1002A000FF4F0190F081E02D308181E090E002C0AD
:1002B000880F991F2A95E2F7832B808381E00895A8
:0C02C00080E0089580E0089580E008953B
:1002CC00CF92DF92EF92CF93611571058105F1F119
:1002DC006B01E82E0E94FC01C82F8E2DB6016F5FBA
:1002EC007F4F8F4F0E94FC01C82B8E2DB6016E5F85
:1002FC007F4F8F4F0E94FC01C82B8E2DB6016D5F76
:10030C007F4F8F4F0E94FC01C82B8E2DB6016C5F66
:10031C007F4F8F4F0E94FC01C82B8E2DB6016B5F57
:10032C007F4F8F4F0E94FC01C82B8E2DB6016A5F48
:10033C007F4F8F4F0E94FC01C82B8E2DB601695F39
:10034C007F4F8F4F0E94FC018C2B01C080E0CF911E
:08035C00EF90DF90CF900895AF
:10036400A82FCB010097A10509F440C0FC012491FA
:10037400A7FD20812695269527704423E1F041307E
:10038400B9F5FC018491A7FD80818370E82FF0E02A
:10039400EE0FFF1FE05AFF4F0190F081E02D3081F6
:1003A40081E090E002C0880F991F2A95E2F7832B21
:1003B400808381E00895FC018491A7FD808183708E
:1003C400E82FF0E0EE0FFF1FE05AFF4F0190F0819D
:1003D400E02D308181E090E002C0880F991F2A95BA
:1003E400E2F780958323808381E0089580E0089577
:0403F40080E0089508
:1003F800CF92DF92EF92CF9361157105810591F04D
:100408006B01E82E0E94B900C82FF6014491E7FC61
:10041800408146FB442740F98E2DB6010E94B20167
:100428008C2B01C080E0CF91EF90DF90CF900895A2
:100438000E94340280E790E06C0120E8E22E41E05F
:0A0448008E2DB6010E945800FACF75
:10045200EC010E943F020E943E02CE010E94400235
:06046200CE010E943C02E5
:0C04680060E770E080E80E9466010895E3
:040474000C940000E4
:040478000E94560088
:02047C000895E1
:02047E000895DF
:020480000895DD
:080482003B0038003500320098
:08048A003A0037003400310094
:080492004C4855590105090D04
:00000001FF
