:100000000C9436000C940D040C943E030C940D04D7
:100010000C940D040C940D040C940D040C940D041C
:100020000C940D040C940D040C9493020C94500247
:100030000C9494030C940D040C940D040C940D0476
:100040000C946A030C940D040C940D040C940D0490
:100050000C940D0400600079000828007900858068
:1000600000850087000841008700888011241FBE9A
:10007000CFE5D8E0DEBFCDBFE4E5F0E040E017C05B
:10008000B591A59135912591059107FD0CC09591EC
:100090008591EF01F92FE82F05900D92A217B30774
:1000A000D9F7FE0104C01D92A217B307E1F7EC36A1
:1000B000F40731F70E94FD030C94F203F894FFCF8C
:1000C000A82FCB010097A10509F4F1C023B7287F21
:1000D00023BF9C014A2F2C5F3F4F4F4FF9012491C2
:1000E00047FD20812130C1F028F0223039F1233042
:1000F000B9F148C09C014A2F2B5F3F4F4F4FF90188
:10010000249147FD20812370322F3295307F23B711
:100110002F7C232B23BF47C09C014A2F2B5F3F4FCF
:100120004F4FF901249147FD20812370322F3295E2
:10013000307F23B72F7C232B23BF35C09C014A2F50
:100140002B5F3F4F4F4FF901249147FD20812370D2
:10015000322F3295307F23B72F7C232B23BF23C030
:100160009C014A2F2B5F3F4F4F4FF901249147FDD0
:1001700020812370322F3295307F23B72F7C232BA1
:1001800023BF11C09C014A2F2B5F3F4F4F4FF901F6
:10019000249147FD20812370322F3295307F23B781
:1001A0002F7C232B23BFFC015A2F0E940504672BB1
:1001B00069F0789429B7216029BFFC015A2F0E9469
:1001C000050470938400609383001CC09C014A2F37
:1001D0002E5F3F4F4F4FF901542F0E940504672BAC
:1001E00089F0789429B7226029BF9C014A2F2E5F9D
:1001F0003F4F4F4FF901542F0E9405047093820026
:10020000609381009C014A2F2C5F3F4F4F4FF901B3
:10021000249147FD2081213069F028F0223089F0B7
:100220002330B1F01CC023B72F7B23BF23B7277F18
:1002300023BF1BC023B7206423BF23B7277F23BF5F
:1002400014C023B72F7B23BF23B7286023BF0DC063
:1002500023B7206423BF23B7286023BF06C023B77A
:100260002F7B23BF23B7277F23BF9C014A2F295F02
:100270003F4F4F4FF901249147FD20812093870084
:100280009C014A2F285F3F4F4F4FF901249147FDB2
:1002900020812CBF0696A11DFC018491A7FD8081C1
:1002A000877093B7987F892B83BF81E0089580E0A2
:0202B0000895AF
:1002B200CF93DF93A82FCB010097A10509F449C082
:1002C200FC012491A7FD2081269526952770FC012B
:1002D2003491A7FD308135FB442740F935FF1FC01B
:1002E2004130C9F53370E32FF0E0EE0FFF1FEF58F6
:1002F200FF4F0190F081E02D608141E050E0EA0182
:1003020002C0CC0FDD1F2A95E2F79E01209526231D
:100312002083BC018A2F0E94B00181E01DC0FC0134
:100322008491A7FD80818370E82FF0E0EE0FFF1F1C
:10033200EF58FF4F0190F081E02D308181E090E095
:1003420002C0880F991F2A95E2F7832B808381E0F0
:0E03520003C080E001C080E0DF91CF910895EC
:10036000A82FCB010097A10509F44AC0FC012491F4
:10037000A7FD2081269526952770FC013491A7FDC5
:10038000308135FF3FC037FB332730F9332319F075
:100390003130E1F039C0FC018491A7FD8081837088
:1003A000E82FF0E0EE0FFF1FE759FF4F0190F081BB
:1003B000E02D308181E090E002C0880F991F2A95DE
:1003C000E2F780958323808381E00895FC01849186
:1003D000A7FD80818370E82FF0E0EE0FFF1FE75943
:1003E000FF4F0190F081E02D308181E090E002C06C
:1003F000880F991F2A95E2F7832B808381E0089567
:0C04000080E0089580E0089580E00895F9
:10040C00A82FCB010097A10509F440C0FC01249151
:10041C00A7FD20812695269527704423E1F04130D5
:10042C00B9F5FC018491A7FD80818370E82FF0E081
:10043C00EE0FFF1FE759FF4F0190F081E02D308147
:10044C0081E090E002C0880F991F2A95E2F7832B78
:10045C00808381E00895FC018491A7FD80818370E5
:10046C00E82FF0E0EE0FFF1FE759FF4F0190F081EE
:10047C00E02D308181E090E002C0880F991F2A9511
:10048C00E2F780958323808381E0089580E00895CE
:04049C0080E008955F
:1004A0001F920F920FB60F9211242F933F934F93E9
:1004B0005F936F937F938F939F93AF93BF93EF93CC
:1004C000FF9388B7816088BF80917F009091800002
:1004D00001969093800080937F0080917F0090919F
:1004E0008000803A9F4071F41092800010927F004B
:1004F0008091870082BFE0918300F0918400309763
:1005000009F00995FF91EF91BF91AF919F918F9164
:100510007F916F915F914F913F912F910F900FBEFF
:060520000F901F901895DA
:100526001F920F920FB60F9211242F933F934F9362
:100536005F936F937F938F939F93AF93BF93EF9345
:10054600FF9388B7826088BF80917F00909180007A
:1005560001969093800080937F0080917F00909118
:100566008000803A9F4059F41092800010927F00DC
:10057600E0918100F0918200309709F00995FF9192
:10058600EF91BF91AF919F918F917F916F915F9105
:100596004F913F912F910F900FBE0F901F9018957E
:1005A600CF93DF930F92CDB7DEB761157105810545
:1005B60041F19B01482FFB01849147FD80818370A7
:1005C60099819C7F892B8983F901949147FD9081BC
:1005D6009C71837E892B8F7D8983F901949147FDD8
:1005E600908195FB992790F990FB86F98F778983FF
:1005F600BE016F5F7F4F80E841E00E94060281E006
:0C06060001C080E00F90DF91CF910895BB
:10061200CF93DF930F92CDB7DEB7611571058105D8
:1006220039F19B01482FFB01849147FD8081837042
:1006320099819C7F892B8983F901949147FD90814F
:100642009C71837E892B8F7D8983F901949147FD6B
:10065200908195FB992790F990FB86F98F77898392
:10066200BE016F5F7F4F80E80E94BD0381E001C041
:0A06720080E00F90DF91CF91089512
:10067C001F920F920FB60F9211242F933F934F930B
:10068C005F936F937F938F939F93AF93BF93EF93EE
:10069C00FF938AB780688ABFE0917B00F0917C0061
:1006AC00309709F00995FF91EF91BF91AF919F9110
:1006BC008F917F916F915F914F913F912F910F90FF
:0806CC000FBE0F901F9018955E
:1006D4001F920F920FB60F9211242F933F934F93B3
:1006E4005F936F937F938F939F93AF93BF93EF9396
:1006F400FF93349AE0917900F0917A00309709F0F1
:100704000995FF91EF91BF91AF919F918F917F9147
:100714006F915F914F913F912F910F900FBE0F906A
:040724001F90189575
:100728001F920F920FB60F9211242F933F934F935E
:100738005F936F937F938F939F93AF93BF93EF9341
:10074800FF93E0917D00F0917E00309709F00995C4
:10075800FF91EF91BF91AF919F918F917F916F9191
:100768005F914F913F912F910F900FBE0F901F9067
:020778001895D2
:10077A00CF92DF92EF92CF9361157105810591F0C7
:10078A006B01E82E0E945901C82FF6014491E7FC3B
:10079A00408146FB442740F98E2DB6010E9406028D
:1007AA008C2B01C080E0CF91EF90DF90CF9008951D
:1007BA00CF9366E870E080E80E940903C82F60E6DC
:1007CA0070E080E80E946000C82B65E870E080E86D
:0A07DA000E94BD038C2BCF910895FF
:1007E400EC010E9412040E941104CE010E94130421
:0607F400CE010E940F047B
:1007FA000E94DD0366E870E080E80E94D302FFCF22
:10080A0057FD03C06591759108956191719108959D
:04081A000C9400003A
:04081E000E945E00D6
:02082200089537
:02082400089535
:02082600089533
:0908280000000000030305007F3D
:080831003B00380035003200E5
:080839003A00370034003100E1
:010841000DA9
:0108420014A1
:00000001FF
