:100000000C9466000C942E0D0C94A60A0C942E0DE4
:100010000C942E0D0C942E0D0C94D20A0C942B0DD6
:100020000C94FE0A0C942A0B0C94010A0C947D0982
:100030000C94FD0B0C942E0D0C942E0D0C942E0D87
:100040000C94810B0C942E0D0C942E0D0C942E0DF3
:100050000C942E0DAD00BA00C700D400E100EE00F4
:10006000FB000801150122012F013C01490170012B
:10007000560163019001A201B401C601D801EA0151
:10008000FC010E02200232024402560268029E0265
:100090007A028C02C302D502E702F9020B031D03A8
:1000A0002F03410353036503770389039B03D103A4
:1000B000AD03BF03006000BA8000BA00ED001A6A09
:1000C00000ED011B80011B011E001A9D11241FBEA3
:1000D000CFE5D8E0DEBFCDBFE4EBF0E040E017C0F5
:1000E000B591A59135912591059107FD0CC095918C
:1000F0008591EF01F92FE82F05900D92A217B30714
:10010000D9F7FE0104C01D92A217B307E1F7EC3C3A
:10011000F40731F70E94E8080C94090DF894FFCF1A
:10012000A82FCB010097A10509F413C42EB5287F91
:100130002EBD9C014A2F2E5E3F4F4F4FF901242FB9
:10014000449127FD408150E04031510508F0C8C07E
:10015000FA01E65DFF4F0C94250D2FB52E7F2FBDC4
:100160002FB52D7F2FBD2EB5277F2EBD2EB52F7E0F
:100170002EBDC2C02FB521602FBD2FB52D7F2FBD45
:100180002EB5277F2EBD2EB52F7E2EBDB5C02FB527
:100190002E7F2FBD2FB522602FBD2EB5277F2EBD00
:1001A0002EB52F7E2EBDA8C02FB521602FBD2FB537
:1001B00022602FBD2EB5277F2EBD2EB52F7E2EBDE2
:1001C0009BC02FB52E7F2FBD2FB52D7F2FBD2EB5F8
:1001D00028602EBD2EB52F7E2EBD8EC02FB521607E
:1001E0002FBD2FB52D7F2FBD2EB528602EBD2EB56E
:1001F0002F7E2EBD81C02FB52E7F2FBD2FB5226043
:100200002FBD2EB528602EBD2EB52F7E2EBD74C0FD
:100210002FB521602FBD2FB522602FBD2EB52860D0
:100220002EBD2EB52F7E2EBD67C02FB52E7F2FBDC4
:100230002FB52D7F2FBD2EB5277F2EBD2EB520616A
:100240002EBD5AC02FB521602FBD2FB52D7F2FBDDC
:100250002EB5277F2EBD2EB520612EBD4DC02FB5EA
:100260002E7F2FBD2FB522602FBD2EB5277F2EBD2F
:100270002EB520612EBD40C02FB521602FBD2FB5FA
:1002800022602FBD2EB5277F2EBD2EB520612EBD3D
:1002900033C02FB52E7F2FBD2FB52D7F2FBD2EB58F
:1002A00028602EBD2EB520612EBD26C02FB52E7F15
:1002B0002FBD2FB522602FBD2EB528602EBD2EB5C7
:1002C00020612EBD19C02FB521602FBD2FB5226032
:1002D0002FBD2EB528602EBD2EB520612EBD0CC0C1
:1002E0002FB52E7F2FBD2FB52D7F2FBD2EB5277F8C
:1002F0002EBD2EB52F7E2EBD9C014A2F2E5E3F4F68
:100300004F4FF901242F449127FD408150E04031A7
:10031000510508F013C1FA01E65CFF4F0C94250D5E
:100320009C014A2F205F3F4F4F4FF901249147FD19
:1003300020812295220F220F207C3FB53F73232B73
:100340002FBD0DC19C014A2F205F3F4F4F4FF90138
:10035000249147FD20812295220F220F207C3FB55A
:100360003F73232B2FBDFBC09C014A2F205F3F4FC3
:100370004F4FF901249147FD20812295220F220F32
:10038000207C3FB53F73232B2FBDE9C09C014A2F32
:10039000205F3F4F4F4FF901249147FD2081229567
:1003A000220F220F207C3FB53F73232B2FBDD7C0D8
:1003B0009C014A2F205F3F4F4F4FF901249147FD89
:1003C00020812295220F220F207C3FB53F73232BE3
:1003D0002FBDC5C09C014A2F205F3F4F4F4FF901F1
:1003E000249147FD20812295220F220F207C3FB5CA
:1003F0003F73232B2FBDB3C09C014A2F205F3F4F7B
:100400004F4FF901249147FD20812295220F220FA1
:10041000207C3FB53F73232B2FBDA1C09C014A2FE9
:10042000205F3F4F4F4FF901249147FD20812295D6
:10043000220F220F207C3FB53F73232B2FBD8FC08F
:100440009C014A2F205F3F4F4F4FF901249147FDF8
:1004500020812295220F220F207C3FB53F73232B52
:100460002FBD7DC09C014A2F205F3F4F4F4FF901A8
:10047000249147FD20812295220F220F207C3FB539
:100480003F73232B2FBD6BC09C014A2F205F3F4F32
:100490004F4FF901249147FD20812295220F220F11
:1004A000207C3FB53F73232B2FBD59C09C014A2FA1
:1004B000205F3F4F4F4FF901249147FD2081229546
:1004C000220F220F207C3FB53F73232B2FBD47C047
:1004D0009C014A2F205F3F4F4F4FF901249147FD68
:1004E00020812295220F220F207C3FB53F73232BC2
:1004F0002FBD35C09C014A2F205F3F4F4F4FF90160
:10050000249147FD20812295220F220F207C3FB5A8
:100510003F73232B2FBD23C09C014A2F205F3F4FE9
:100520004F4FF901249147FD20812295220F220F80
:10053000207C3FB53F73232B2FBD11C09C014A2F58
:10054000205F3F4F4F4FF901249147FD20812295B5
:10055000220F220F207C3FB53F73232B2FBD9C0120
:100560004A2F2E5E3F4F4F4FF901242F449127FD14
:10057000408150E04031510508F013C1FA01E65BBB
:10058000FF4F0C94250D9C014A2F2F5E3F4F4F4F7C
:10059000F901249147FD20812370322F3295307F5D
:1005A0002FB52F7C232B2FBD0DC19C014A2F2F5E11
:1005B0003F4F4F4FF901249147FD20812370322F87
:1005C0003295307F2FB52F7C232B2FBDFBC09C0194
:1005D0004A2F2F5E3F4F4F4FF901249147FD208155
:1005E0002370322F3295307F2FB52F7C232B2FBDD8
:1005F000E9C09C014A2F2F5E3F4F4F4FF9012491D4
:1006000047FD20812370322F3295307F2FB52F7C0C
:10061000232B2FBDD7C09C014A2F2F5E3F4F4F4F3A
:10062000F901249147FD20812370322F3295307FCC
:100630002FB52F7C232B2FBDC5C09C014A2F2F5EC9
:100640003F4F4F4FF901249147FD20812370322FF6
:100650003295307F2FB52F7C232B2FBDB3C09C014B
:100660004A2F2F5E3F4F4F4FF901249147FD2081C4
:100670002370322F3295307F2FB52F7C232B2FBD47
:10068000A1C09C014A2F2F5E3F4F4F4FF90124918B
:1006900047FD20812370322F3295307F2FB52F7C7C
:1006A000232B2FBD8FC09C014A2F2F5E3F4F4F4FF2
:1006B000F901249147FD20812370322F3295307F3C
:1006C0002FB52F7C232B2FBD7DC09C014A2F2F5E81
:1006D0003F4F4F4FF901249147FD20812370322F66
:1006E0003295307F2FB52F7C232B2FBD6BC09C0103
:1006F0004A2F2F5E3F4F4F4FF901249147FD208134
:100700002370322F3295307F2FB52F7C232B2FBDB6
:1007100059C09C014A2F2F5E3F4F4F4FF901249142
:1007200047FD20812370322F3295307F2FB52F7CEB
:10073000232B2FBD47C09C014A2F2F5E3F4F4F4FA9
:10074000F901249147FD20812370322F3295307FAB
:100750002FB52F7C232B2FBD35C09C014A2F2F5E38
:100760003F4F4F4FF901249147FD20812370322FD5
:100770003295307F2FB52F7C232B2FBD23C09C01BA
:100780004A2F2F5E3F4F4F4FF901249147FD2081A3
:100790002370322F3295307F2FB52F7C232B2FBD26
:1007A00011C09C014A2F2F5E3F4F4F4FF9012491FA
:1007B00047FD20812370322F3295307F2FB52F7C5B
:1007C000232B2FBDFC015A2F0E941D0D672B61F0BA
:1007D000789429B7246029BFFC015A2F0E941D0D6F
:1007E00070930C0160930B019C014A2F2E5F3F4FC9
:1007F0004F4FF901542F0E941D0D672B21F0789463
:1008000029B7206129BF9C014A2F2C5F3F4F4F4FD2
:10081000F901542F0E941D0D672B89F0789429B798
:10082000286029BF9C014A2F2C5F3F4F4F4FF90191
:10083000542F0E941D0D70930A01609309019C01C1
:100840004A2F2A5F3F4F4F4FF901542F0E941D0D31
:10085000672B89F0789429B7206229BF9C014A2F21
:100860002A5F3F4F4F4FF901542F0E941D0D709387
:100870000801609307019C014A2F285F3F4F4F4FAB
:10088000F901542F0E941D0D70930601609305011C
:100890009C014A2F265F3F4F4F4FF901542F0E9472
:1008A0001D0D7BBD6ABD9C014A2F245F3F4F4F4FFA
:1008B000F901542F0E941D0D79BD68BD9C014A2F7E
:1008C000225F3F4F4F4FF901542F0E941D0D77BDFE
:1008D00066BD9C014A2F2C5E3F4F4F4FF90124917A
:1008E00047FD2081213069F028F0223089F0233043
:1008F000B1F01CC02EB520682EBD2EB52F7B2EBDAD
:100900001BC02EB520682EBD2EB520642EBD14C090
:100910002EB52F772EBD2EB52F7B2EBD0DC02EB53B
:100920002F772EBD2EB520642EBD06C02EB52F7795
:100930002EBD2EB52F7B2EBD4396A11DFC018491AB
:10094000A7FD808187709EB5987F892B8EBD81E041
:06095000089580E0089507
:10095600EF92FF920F931F93CF93DF938091150130
:10096600811104C1C091F100D091F2007E018FEF98
:10097600E81AF80AF092F200E092F100E114F104AC
:10098600B9F48091F5009091F6002091F300309132
:10099600F4003093F6002093F5009093F4008093D2
:1009A600F300809116018F5F809316010E94B20CAE
:1009B6008091ED009091EE00E816F90610F480E0C3
:1009C600B9C080E061E0E091F500F091F600908119
:1009D600911107C02FEF3FEF3093EE002093ED000B
:1009E600A9C0E091F500F091F6000580F681E02DB2
:1009F6000680F781E02D22813381E216F30628F482
:100A06003093EE002093ED0095C0A285B385248136
:100A1600358146815781E9015D834C832681378183
:100A260044815581E9015B834A83AF014E5F5F4F85
:100A360011962D913C9112972417350731F4268192
:100A4600378112963C932E931197138612869C91AA
:100A560091509C93A489B589109719F126853785FD
:100A660000891189E9011D830C8320893189068556
:100A76001785E9011B830A8311960D911C91129724
:100A86009F01245F3F4F0217130731F420893189F4
:100A960012963C932E931197158A148A9C91915025
:100AA6009C93268990911801921710F420931801AF
:100AB60030E0D901AA0FBB1FAA0FBB1FAA0FBB1F8D
:100AC6002A0F3B1FD901A05ABF4F11960D90BC911A
:100AD600A02DB583A48314962D913C911597378349
:100AE600268314962D913C911597E9015B834A83E1
:100AF60015965C934E931497A689B0E09D01220F3C
:100B0600331F220F331F220F331FA20FB31FA05A0A
:100B1600BF4FB387A2879C919F5F9C93A091F700DC
:100B2600B091F800268956969C91921708F04BCF03
:100B3600862F49CFE091F700F091F800268930E042
:100B4600F901EE0FFF1FEE0FFF1FEE0FFF1F2E0F17
:100B56003F1FF901E05AFF4F9081923008F081E083
:100B660090911701992361F081E00AC08091EF000E
:100B76009091F00001969093F0008093EF0080E052
:0E0B8600DF91CF911F910F91FF90EF90089596
:100B94002F923F924F926F927F928F92CF92DF92D9
:100BA400EF9261157105810509F461C03B01882E3E
:100BB4000E94920C882DB3016F5F7F4F8F4F0E946C
:100BC400920CE82C630122E0C20ED11CE11C13013B
:100BD400482C86E0280E311C411C8E2DB6010E9443
:100BE400920C9FEFC91AD90AE90AC214D304E40487
:100BF400A1F72FEF89EF90E0215080409040E1F77A
:100C040000C0000048E3882DB3010E94AB0B8FE1C4
:100C14009EE40197F1F700C0000048E3882DB3017A
:100C24000E94AB0B87E592E00197F1F700C000004A
:100C340048E3882DB3010E94AB0B41E0882DB3013A
:100C44000E94AB0B42E0882DB3010E94AB0B46E03F
:100C5400882DB3010E94AB0B4EE0882DB3010E9496
:100C6400AB0B48E2882DB3010E94AB0B01C080E0BE
:100C7400EF90DF90CF908F907F906F904F903F9048
:040C84002F90089510
:100C88006F927F928F92EF92FF920F931F938091B2
:100C98001A01811127C08AEB90E03C0120E8822EDE
:100CA8004FE051E0882DB3010E94E90CE0900F015C
:100CB800F090100100E010E067EE70E080E821E0BD
:100CC80043E00E94560B60E08AEB90E00E94960891
:100CD80040E050E0882DB3010E94140D81E080931C
:100CE8001A013FC08130E9F58AEB90E03C0120E829
:100CF800822E4DE051E0882DB3010E94E90CE0906E
:100D08000D01F0900E0100E010E067EE70E080E861
:100D180021E044E00E94560B61E08AEB90E00E94DB
:100D2800960820910D0130910E0180910F0190914C
:100D38001001820F931F909314018093130140E0D8
:100D480050E0882DB3010E94140D8BE090E0909341
:100D58000E0180930D011092100110920F01109254
:100D68001A011F910F91FF90EF908F907F906F90D5
:020D78000895DC
:100D7A002F923F924F925F926F927F928F92CF9271
:100D8A00DF92EF92FF920F931F93CF93DF93CDB72A
:100D9A00DEB72A970FB6F894DEBF0FBECDBF3B0170
:100DAA00882E622F732F842F952F6114710481046A
:100DBA0091F16E012BE0C20ED11C8E010F5F1F4F05
:100DCA0076010F2EFAE02F2E312C412C512CF02DCA
:100DDA00A20191010E944F0CF70162937F01622FD9
:100DEA00732F842F952F0E171F0791F790E081E03C
:100DFA00FF24F394F80141918F01411102C0992314
:100E0A0031F0405D882DB3010E94D40B9F2D0C1543
:100E1A001D0581F701C080E02A960FB6F894DEBF5F
:100E2A000FBECDBFDF91CF911F910F91FF90EF9031
:100E3A00DF90CF908F907F906F905F904F903F9010
:040E4A002F90089548
:100E4E0080911501882321F081E080931701089588
:100E5E001092170120911801822F90E0FC01EE0FE5
:100E6E00FF1FEE0FFF1FEE0FFF1FE80FF91FE05AD7
:100E7E00FF4F3081311111C02150822F90E0FC01C3
:100E8E00EE0FFF1FEE0FFF1FEE0FFF1FE80FF91FF4
:100E9E00E05AFF4F3081332379F3AC01440F551FD5
:100EAE00440F551F440F551F480F591FDA01A05A02
:100EBE00BF4F1196ED91FC9112970280F381E02DB8
:100ECE001296FC93EE9311974D595F4FE417F50769
:100EDE0029F442815381FD0152834183FC01EE0FBF
:100EEE00FF1FEE0FFF1FEE0FFF1F8E0F9F1FFC0148
:100EFE00E05AFF4F0180F281E02D86819781909319
:0C0F0E00F8008093F7002093180108956C
:100F1A000F920FB6F8940F921F9211242F923F92BC
:100F2A004F925F926F927F928F929F92AF92BF92EF
:100F3A00CF92DF92EF92FF920F931F932F933F93DB
:100F4A004F935F936F937F938F939F93AF93BF93C7
:100F5A00CF93DF93EF93FF93A091F700B091F8003E
:100F6A000DB60D920EB60D920E94AB0481110E942D
:100F7A002707A091F700B091F800CD91CDBFDD9180
:100F8A00DEBFFF91EF91DF91CF91BF91AF919F911A
:100F9A008F917F916F915F914F913F912F911F9107
:100FAA000F91FF90EF90DF90CF90BF90AF909F90FE
:100FBA008F907F906F905F904F903F902F901F90EF
:080FCA000F900FBE0F90089577
:100FD200CF93DF93A82FCB010097A10509F449C055
:100FE200FC012491A7FD2081269526952770FC01FE
:100FF2003491A7FD308135FB442740F935FF1FC0EE
:101002004130C9F53370E32FF0E0EE0FFF1FE952D4
:10101200FF4F0190F081E02D608141E050E0EA0154
:1010220002C0CC0FDD1F2A95E2F79E0120952623F0
:101032002083BC018A2F0E94400881E01DC0FC0170
:101042008491A7FD80818370E82FF0E0EE0FFF1FEF
:10105200E952FF4F0190F081E02D308181E090E074
:1010620002C0880F991F2A95E2F7832B808381E0C3
:0E10720003C080E001C080E0DF91CF910895BF
:10108000A82FCB010097A10509F44AC0FC012491C7
:10109000A7FD2081269526952770FC013491A7FD98
:1010A000308135FF3FC037FB332730F9332319F048
:1010B0003130E1F039C0FC018491A7FD808183705B
:1010C000E82FF0E0EE0FFF1FE153FF4F0190F0819A
:1010D000E02D308181E090E002C0880F991F2A95B1
:1010E000E2F780958323808381E00895FC01849159
:1010F000A7FD80818370E82FF0E0EE0FFF1FE15322
:10110000FF4F0190F081E02D308181E090E002C03E
:10111000880F991F2A95E2F7832B808381E0089539
:0C11200080E0089580E0089580E00895CC
:10112C00009709F44DC0613099F028F06230F1F06D
:10113C00633051F137C02EB520682EBD2EB52F7BF4
:10114C002EBD28B7206228BFFC01148A81E00895C7
:10115C002EB520682EBD2EB520642EBD28B720627A
:10116C0028BF21E0FC01248B81E008952EB52F7758
:10117C002EBD2EB52F7B2EBD28B7206228BF22E0B6
:10118C00FC01248B81E008952EB52F772EBD2EB552
:10119C0020642EBD28B7206228BF23E0FC01248BDD
:1011AC0081E008952EB52F772EBD2EB52F7B2EBD49
:1011BC0028B7206228BF22E0FC01248B81E008952F
:0411CC0080E0089522
:1011D0000E94260C8BE191E03C0120E8822E87EEF4
:1011E00090E05C0120E8C22E41E0882DB3010E940E
:1011F000330985E38A95F1F7000040E0882DB301BB
:101200000E94330940911301509114019A01A1E702
:10121000BFE10E94FA0C481B590B56954795840F65
:10122000951F96958795929582958F7089279F70C7
:1012300089279093120180931101E0901101F090A1
:10124000120100E010E021E042E08C2DB5010E9487
:10125000560B9FEF20E782E0915020408040E1F75D
:0612600000C00000C1CF38
:10126600A82FCB010097A10509F440C0FC012491E9
:10127600A7FD20812695269527704423E1F041306D
:10128600B9F5FC018491A7FD80818370E82FF0E019
:10129600EE0FFF1FE153FF4F0190F081E02D3081EB
:1012A60081E090E002C0880F991F2A95E2F7832B10
:1012B600808381E00895FC018491A7FD808183707D
:1012C600E82FF0E0EE0FFF1FE153FF4F0190F08192
:1012D600E02D308181E090E002C0880F991F2A95A9
:1012E600E2F780958323808381E0089580E0089566
:0412F60080E00895F7
:1012FA001F920F920FB60F9211242F933F934F9381
:10130A005F936F937F938F939F93AF93BF93EF9363
:10131A00FF9388B7816088BF8091FF009091000198
:10132A000196909300018093FF008091FF009091B5
:10133A000001803A9F4071F4109200011092FF0060
:10134A008091190182BFE0910301F0910401309765
:10135A0009F00995FF91EF91BF91AF919F918F91FC
:10136A007F916F915F914F913F912F910F900FBE97
:06137A000F901F90189572
:101380002F923F924F926F927F928F92CF92DF92E5
:10139000EF9261157105810549F11B01482E3B0152
:1013A000882E6B01E82E84E0C80ED11CE11C882D2C
:1013B000B3010E94920C9FEF691A790A890AC61438
:1013C000D704E804A1F7842C310188E0680E711C71
:1013D000811C8E2DB6010E94E9079FEFC91AD90A18
:1013E000E90AC614D704E804A1F701C080E0EF9031
:1013F000DF90CF908F907F906F904F903F902F9085
:0214000008954D
:101402001F920F920FB60F9211242F933F934F9377
:101412005F936F937F938F939F93AF93BF93EF935A
:10142200FF9388B7826088BF8091FF00909100018E
:101432000196909300018093FF008091FF009091AC
:101442000001803A9F4059F4109200011092FF006F
:10145200E0910101F0910201309709F00995FF91A5
:10146200EF91BF91AF919F918F917F916F915F911A
:101472004F913F912F910F900FBE0F901F90189593
:10148200CF93DF930F92CDB7DEB76115710581055A
:1014920039F19B01482FFB01849147FD80818370C4
:1014A20099819C7F892B8983F901949147FD9081D1
:1014B2009C71837E892B8F7D8983F901949147FDED
:1014C200908195FB992790F990FB86F98F77898314
:1014D200BE016F5F7F4F80E80E94920C81E001C0E5
:0A14E20080E00F90DF91CF91089594
:1014EC00CF92DF92EF92CF936B01E82EC42F417015
:1014FC006E5F7F4F8F4F0E943309C1FB442740F929
:10150C008E2DB6016D5F7F4F8F4F0E943309C2FB4A
:10151C00442740F98E2DB6016C5F7F4F8F4F0E9490
:10152C003309C3FB442740F98E2DB6016B5F7F4F07
:10153C008F4F0E943309CF91EF90DF90CF90089599
:10154C001F920F920FB60F9211242F933F934F932C
:10155C005F936F937F938F939F93AF93BF93EF930F
:10156C00FF938AB780688ABFE091FB00F091FC0082
:10157C00309709F00995FF91EF91BF91AF919F9131
:10158C008F917F916F915F914F913F912F910F9020
:08159C000FBE0F901F9018957F
:1015A4001F920F920FB60F9211242F933F934F93D4
:1015B4005F936F937F938F939F93AF93BF93EF93B7
:1015C400FF9388B7806288BFE0910701F09108011A
:1015D400309709F00995FF91EF91BF91AF919F91D9
:1015E4008F917F916F915F914F913F912F910F90C8
:0815F4000FBE0F901F90189527
:1015FC001F920F920FB60F9211242F933F934F937C
:10160C005F936F937F938F939F93AF93BF93EF935E
:10161C00FF9388B7886088BFE0910901F0910A01B7
:10162C00309709F00995FF91EF91BF91AF919F9180
:10163C008F917F916F915F914F913F912F910F906F
:08164C000FBE0F901F901895CE
:101654001F920F920FB60F9211242F933F934F9323
:101664005F936F937F938F939F93AF93BF93EF9306
:10167400FF9388B7846088BFE0910B01F0910C015F
:10168400309709F00995FF91EF91BF91AF919F9128
:101694008F917F916F915F914F913F912F910F9017
:0816A4000FBE0F901F90189576
:1016AC008F929F92AF92BF92CF92DF92EF92FF9266
:1016BC000F931F93CF9361157105810579F0470145
:1016CC0058016B01E82E0E94710CC82FA5019401E2
:1016DC008E2DB6010E94BD068C2B01C080E0CF91EF
:1016EC001F910F91FF90EF90DF90CF90BF90AF9034
:0616FC009F908F900895FD
:101702001F920F920FB60F9211242F933F934F9374
:101712005F936F937F938F939F93AF93BF93EF9357
:10172200FF93349AE091F900F091FA00309709F0B2
:101732000995FF91EF91BF91AF919F918F917F9109
:101742006F915F914F913F912F910F900FBE0F902C
:041752001F90189537
:10175600CF92DF92EF92CF93611571058105D9F093
:10176600C42F6B01E82E40E00E9433094C2F4295AE
:101776004F708E2DB6010E94760A8E2DB6010E94FC
:10178600CE0C4C2F8E2DB6010E94760A8E2DB601F8
:101796000E94CE0C01C080E0CF91EF90DF90CF90F9
:0217A6000895A4
:1017A800CF92DF92EF92CF93611571058105D9F041
:1017B800C42F6B01E82E41E00E9433094C2F42955B
:1017C8004F708E2DB6010E94760A8E2DB6010E94AA
:1017D800CE0C4C2F8E2DB6010E94760A8E2DB601A6
:1017E8000E94CE0C01C080E0CF91EF90DF90CF90A7
:0217F800089552
:1017FA001F920F920FB60F9211242F933F934F937C
:10180A005F936F937F938F939F93AF93BF93EF935E
:10181A00FF93E091FD00F091FE00309709F00995E1
:10182A00FF91EF91BF91AF919F918F917F916F91AE
:10183A005F914F913F912F910F900FBE0F901F9084
:02184A001895EF
:10184C00CF936DE171E080E80E94410AC82F67EEEA
:10185C0070E080E80E94CA058C2BC82FC1606FED28
:10186C0070E080E80E94C009C82B6CE171E080E850
:10187C000E94920CC82B6BE171E080E80E94920CE4
:10188C00C82B6AEB70E080E80E9490008C2BCF9103
:02189C000895AD
:10189E00A1E21A2EAA1BBB1BFD010DC0AA1FBB1F66
:1018AE00EE1FFF1FA217B307E407F50720F0A21BD8
:1018BE00B30BE40BF50B661F771F881F991F1A9445
:1018CE0069F760957095809590959B01AC01BD016F
:0418DE00CF01089599
:1018E200423071F018F4413031F019C0433069F0E0
:1018F200443081F014C04FE7420F0E94AB0B0895B1
:101902004FEB420F0E94AB0B089543E9420F0E9436
:10191200AB0B089543ED420F0E94AB0B089581E09B
:02192200089526
:10192400CF92DF92EF92CF9361157105810591F00B
:101934006B01E82E0E94E907C82FF6014491E7FCE9
:10194400408146FB442740F98E2DB6010E9433099D
:101954008C2B01C080E0CF91EF90DF90CF90089561
:10196400E091F500F091F6008081811107C08FEFBE
:101974009FEF9093EE008093ED000895E091F500C1
:10198400F091F6000580F681E02D8081918190939D
:08199400EE008093ED000895C0
:10199C00CF92DF92EF926B01E82E9FEFC91AD90A12
:1019AC00E90A41E08E2DB6010E9433098AE18A953D
:1019BC00F1F700C040E08E2DB6010E943309EF9084
:0619CC00DF90CF900895AA
:1019D200672B682B51F04115510549F086B597B533
:1019E200FA019183808381E0089580E0089580E088
:0219F200089556
:1019F400A29FB001B39FC001A39F700D811D11244C
:0E1A0400911DB29F700D811D1124911D08953A
:101A1200EC010E94330D0E94320DCE010E94340D62
:061A2200CE010E94300D10
:101A2800672B682B21F05DBD4CBD81E0089580E0F7
:021A380008950F
:101A3A0057FD03C06591759108956191719108955B
:0C1A4A00EE0FFF1F0590F491E02D0994B1
:061A56000E948D071895A7
:041A5C000C940000E6
:041A60000E948E0052
:021A64000895E3
:021A66000895E1
:021A68000895DF
:101A6A0000000000000044060000401FA00F803E56
:051A7A00000000020164
:081A7F003B0038003500320085
:081A87003A0037003400310081
:081A8F0056524E4ABFBBB7AF2F
:061A97000C080105091115
:011A9D001731
:011A9E00BB8C
:011A9F001432
:00000001FF
