:100000000C942E000C940C050C940C050C940C050F
:100010000C940C050C940C050C940C050C940C051C
:100020000C940C050C940C050C940C050C940C050C
:100030000C940C050C940C050C940C050C940C05FC
:100040000C940C050C940C050C940C050C940C05EC
:100050000C940C0500600088000A320011241FBEB9
:10006000CFE5D8E0DEBFCDBFE4E5F0E040E017C06B
:10007000B591A59135912591059107FD0CC09591FC
:100080008591EF01F92FE82F05900D92A217B30784
:10009000D9F7FE0104C01D92A217B307E1F7EB35B3
:1000A000F40731F70E94A2030C94F904F894FFCFEF
:1000B0003F924F925F926F927F928F929F92AF92F8
:1000C000BF92CF92DF92EF92FF920F931F93CF9345
:1000D000DF934B015C01EA01209709F47DC010E039
:1000E0000F2EC12CFAECDF2EFAE9EF2EFBE3FF2EE8
:1000F000F02D0F2EFAE04F2E512C612C712CF02D8B
:100100000F2EF0E33F2EF02DC501B401A70196019B
:100110000E946A042115310541055105D9F101E01C
:10012000010FFE01E10FF11D205D2083C501B40127
:10013000A70196010E946A044B015C01C701B60148
:10014000A30192010E946A0482169306A406B506D2
:1001500030F41E5FFE01E00FF11D308201C0102F50
:100160008AE0C816D104E104F10431F57E01E10E04
:10017000F11CC501B4012AE030E040E050E00E94EB
:100180006A04605DF70160831F5FC10FD11D188293
:1001900081E023C0FAE08F169104A104B10460F459
:1001A000FE01E10FF11D80E3880D80831F5FC10F09
:1001B000D11D188281E011C0C701B601A3019201CF
:1001C0000E946A0469017A012A303105410551050E
:1001D00008F09ACF81E001C080E0DF91CF911F91BC
:1001E0000F91FF90EF90DF90CF90BF90AF909F90D6
:0E01F0008F907F906F905F904F903F9008959A
:1001FE002F923F924F926F927F928F92CF92DF9279
:10020E00EF9261157105810509F46BC06B01E82E43
:10021E000E94AD048E2DB6016F5F7F4F8F4F0E94EF
:10022E00AD0436018E2C22E0620E711C811C16016B
:10023E004E2C86E0280E311C411C882DB3010E94E5
:10024E00AD049FEF691A790A890A62147304840453
:10025E00A1F72FEF89EF90E0215080409040E1F719
:10026E0000C0000048E38E2DB6010E94D0038FE13E
:10027E009EE40197F1F700C0000048E38E2DB60111
:10028E000E94D00387E592E00197F1F700C00000CD
:10029E0048E38E2DB6010E94D00341E08E2DB601AB
:1002AE000E94D00342E08E2DB6010E94D00346E09C
:1002BE008E2DB6010E94D0034CE08E2DB6010E9409
:1002CE00D00348E28E2DB6010E94D00341E08E2D60
:1002DE00B6010E94D00340E88E2DB6010E94D003D5
:1002EE0001C080E0EF90DF90CF908F907F906F9065
:0802FE004F903F902F900895EE
:10030600CF93DF93A82FCB010097A10509F449C02D
:10031600FC012491A7FD2081269526952770FC01D6
:100326003491A7FD308135FB442740F935FF1FC0C6
:100336004130C9F53370E32FF0E0EE0FFF1FE859A7
:10034600FF4F0190F081E02D608141E050E0EA012D
:1003560002C0CC0FDD1F2A95E2F79E0120952623C9
:100366002083BC018A2F0E94DA0181E01DC0FC01B6
:100376008491A7FD80818370E82FF0E0EE0FFF1FC8
:10038600E859FF4F0190F081E02D308181E090E047
:1003960002C0880F991F2A95E2F7832B808381E09C
:0E03A60003C080E001C080E0DF91CF91089598
:1003B400A82FCB010097A10509F44AC0FC012491A0
:1003C400A7FD2081269526952770FC013491A7FD71
:1003D400308135FF3FC037FB332730F9332319F021
:1003E4003130E1F039C0FC018491A7FD8081837034
:1003F400E82FF0E0EE0FFF1FE05AFF4F0190F0816D
:10040400E02D308181E090E002C0880F991F2A9589
:10041400E2F780958323808381E00895FC01849131
:10042400A7FD80818370E82FF0E0EE0FFF1FE05AF4
:10043400FF4F0190F081E02D308181E090E002C017
:10044400880F991F2A95E2F7832B808381E0089512
:0C04540080E0089580E0089580E00895A5
:10046000CF92DF92EF92CF93611571058105F1F183
:100470006B01E82E0E94AD04C82F8E2DB6016F5F70
:100480007F4F8F4F0E94AD04C82B8E2DB6016E5F3B
:100490007F4F8F4F0E94AD04C82B8E2DB6016D5F2C
:1004A0007F4F8F4F0E94AD04C82B8E2DB6016C5F1D
:1004B0007F4F8F4F0E94AD04C82B8E2DB6016B5F0E
:1004C0007F4F8F4F0E94AD04C82B8E2DB6016A5FFF
:1004D0007F4F8F4F0E94AD04C82B8E2DB601695FF0
:1004E0007F4F8F4F0E94AD048C2B01C080E0CF91D5
:0804F000EF90DF90CF9008951A
:1004F800A82FCB010097A10509F440C0FC01249165
:10050800A7FD20812695269527704423E1F04130E8
:10051800B9F5FC018491A7FD80818370E82FF0E094
:10052800EE0FFF1FE05AFF4F0190F081E02D308160
:1005380081E090E002C0880F991F2A95E2F7832B8B
:10054800808381E00895FC018491A7FD80818370F8
:10055800E82FF0E0EE0FFF1FE05AFF4F0190F08107
:10056800E02D308181E090E002C0880F991F2A9524
:10057800E2F780958323808381E0089580E00895E1
:0405880080E0089572
:10058C002F923F924F926F927F928F92CF92DF92E7
:10059C00EF9261157105810549F11B01482E3B0154
:1005AC00882E6B01E82E84E0C80ED11CE11C882D2E
:1005BC00B3010E94AD049FEF691A790A890AC61427
:1005CC00D704E804A1F7842C310188E0680E711C73
:1005DC00811C8E2DB6010E9483019FEFC91AD90A86
:1005EC00E90AC614D704E804A1F701C080E0EF9033
:1005FC00DF90CF908F907F906F904F903F902F9087
:02060C0008954F
:10060E00CF93DF930F92CDB7DEB7611571058105DC
:10061E0041F19B01482FFB01849147FD808183703E
:10062E0099819C7F892B8983F901949147FD908153
:10063E009C71837E892B8F7D8983F901949147FD6F
:10064E00908195FB992790F990FB86F98F77898396
:10065E00BE016F5F7F4F80E841E00E947C0281E027
:0C066E0001C080E00F90DF91CF91089553
:10067A00CF93DF930F92CDB7DEB761157105810570
:10068A0039F19B01482FFB01849147FD80818370DA
:10069A0099819C7F892B8983F901949147FD9081E7
:1006AA009C71837E892B8F7D8983F901949147FD03
:1006BA00908195FB992790F990FB86F98F7789832A
:1006CA00BE016F5F7F4F80E80E94AD0481E001C0E8
:0A06DA0080E00F90DF91CF910895AA
:1006E400CF92DF92EF92CF936B01E82EC42F41702B
:1006F4006E5F7F4F8F4F0E947C02C1FB442740F9FD
:100704008E2DB6016D5F7F4F8F4F0E947C02C2FB1E
:10071400442740F98E2DB6016C5F7F4F8F4F0E94A6
:100724007C02C3FB442740F98E2DB6016B5F7F4FDB
:100734008F4F0E947C02CF91EF90DF90CF9008956D
:10074400CF93DF93CDB7DEB72B970FB6F894DEBF08
:100754000FBECDBF0E94470467E870E080E80E94A6
:1007640007030E940E0580E890E06C0120E8E22E69
:100774000E9412050E940405BC0180E090E0AE01D5
:100784004F5F5F4F0E9458008E010F5F1F4F21E0A3
:0C07940042E08E2DB6010E942204EACF44
:1007A000CF92DF92EF92CF93611571058105D9F059
:1007B000C42F6B01E82E40E00E947C024C2F429532
:1007C0004F708E2DB6010E9472038E2DB6010E94CD
:1007D000CD044C2F8E2DB6010E9472038E2DB601D2
:1007E0000E94CD0401C080E0CF91EF90DF90CF90C8
:0207F00008956A
:1007F200CF92DF92EF92CF93611571058105D9F007
:10080200C42F6B01E82E41E00E947C024C2F4295DE
:100812004F708E2DB6010E9472038E2DB6010E947A
:10082200CD044C2F8E2DB6010E9472038E2DB6017F
:100832000E94CD0401C080E0CF91EF90DF90CF9075
:02084200089517
:10084400CF92DF92EF920F931F93CF93DF936115B3
:100854007105810589F0E8016B01E82E0E948C0482
:100864004881442351F021968E2DB6010E94F9034C
:1008740049914111F9CF01C080E0DF91CF911F91DF
:0A0884000F91EF90DF90CF900895E0
:10088E00CF9367E870E080E80E943D03C82F60E8D0
:10089E0070E080E80E94FF00C82B68E770E080E8F7
:1008AE000E943002C82B60E770E080E80E94C6020A
:1008BE00C82B66E870E080E80E94AD040E94E80450
:0608CE008C2FCF9108956C
:1008D400A1E21A2EAA1BBB1BFD010DC0AA1FBB1F40
:1008E400EE1FFF1FA217B307E407F50720F0A21BB2
:1008F400B30BE40BF50B661F771F881F991F1A941F
:1009040069F760957095809590959B01AC01BD0148
:04091400CF01089572
:10091800423071F018F4413031F019C0433069F0B9
:10092800443081F014C04FE7420F0E94D00308956D
:100938004FEB420F0E94D003089543E9420F0E94F3
:10094800D003089543ED420F0E94D003089581E03B
:02095800089500
:10095A00CF92DF92EF92CF9361157105810591F0E5
:10096A006B01E82E0E948301C82FF6014491E7FC2F
:10097A00408146FB442740F98E2DB6010E947C0235
:10098A008C2B01C080E0CF91EF90DF90CF9008953B
:10099A00CF92DF92EF926B01E82E9FEFC91AD90A24
:1009AA00E90A41E08E2DB6010E947C028AE18A950D
:1009BA00F1F700C040E08E2DB6010E947C02EF9054
:0609CA00DF90CF900895BC
:1009D0003E9A3F98389A39983A983B983C983D9877
:1009E0000E9410053598349833983098319A329A8D
:0209F000089568
:1009F200EC010E9417050E941605CE010E941805FF
:060A0200CE010E94140564
:100A08000E941205349BFECF84B195B1349A0895A3
:040A18000C9400003A
:040A1C00379A089568
:040A20003798089566
:040A2400369A089561
:040A28000E945600D2
:020A2C0008952B
:020A2E00089529
:020A3000089527
:080A32003B00380035003200E2
:080A3A003A00370034003100DE
:080A420056524E4ABFBBB7AF8C
:080A4A004C4855590105091142
:060A52000C08010509116A
:010A5800A4F9
:010A59001488
:00000001FF
