:100000000C946C000C94FB080C94FB080C94FB08FB
:100010000C94FB080C94FB080C94FB080C94FB0854
:100020000C94FB080C94FB080C94FB080C94FB0844
:100030000C94FB080C94FB080C94FB080C94FB0834
:100040000C94FB080C94FB080C94FB080C94FB0824
:100050000C94FB080704F503F503F503F503F5031A
:10006000F503F503F503F503F503F503F503F503D0
:10007000F503F503F503F503F503F503F503F503C0
:10008000F503F503F503F503F503F503F503F503B0
:10009000F503F503F503F503F503DD03F503F503B8
:1000A000F503F503F503F503E503ED03F503F103AC
:1000B000F503E903F503F503F503F503F503F5038C
:1000C000F503F503F503F503F503F503F503E10384
:1000D0000060008F0012040011241FBECFE5D8E09D
:1000E000DEBFCDBFE0EDF0E040E017C0B591A591D7
:1000F00035912591059107FD0CC095918591EF01F2
:10010000F92FE82F05900D92A217B307D9F7FE013A
:1001100004C01D92A217B307E1F7E73DF40731F7DA
:0C0120000E94EB080C94E008F894FFCF5C
:10012C00446F6E65002048656C6C6F205468697371
:10013C002069732053746F7279004D79204E616D74
:0C014C00652069732048657368616D00D0
:100158003738392F3435362A3132332D23303D2B79
:100168007F928F929F92AF92BF92CF92DF92EF923F
:10017800FF920F931F93CF93DF93CDB7DEB7E2972C
:100188000FB6F894DEBF0FBECDBF9E012F5F3F4F65
:1001980059018E01035E1F4FC12CD12C712C4601D1
:1001A800B801C5010E949A03F80180810F5F1F4FB3
:1001B8008D33B9F43FEF831A930AF401EE0FFF1F52
:1001C800EE0FFF1FEC0FFD1F83E290E0A0E0B0E010
:1001D80081839283A383B483FE01E80DF91D858F83
:1001E8002BC173944FEFC41AD40A54E0A50EB11C66
:1001F80086E07812D4CF20C1812F90E0EDE1F0E0C5
:10020800EC0FFD1FE80FF91F20812A3219F02F3259
:1002180089F163C0FC013196EE0FFF1FEE0FFF1F3F
:1002280021E030E02C0F3D1FE20FF31F880F991FCC
:10023800880F991FD901A80FB91F2D913D914D9194
:100248005C9160817181828193810E94A908608399
:10025800718382839383472D612FCE014D960E942F
:100268009808472D612FCE0101960E9493070F5FD2
:10027800115033C07C013FEFE31AF30AEE0CFF1C68
:10028800EE0CFF1C41E050E04C0F5D1FE40EF51E24
:10029800880F991F880F991FFA01E80FF91F6081CD
:1002A800718182819381F70120813181428153815B
:1002B8000E94DE07F7012083318342835383472D51
:1002C800612FCE014D960E949808472D612FCE01CF
:1002D80001960E9493070F5F11501F5F711608F077
:1002E8008BCF701A10E0812F90E0EDE1F0E0EC0F79
:1002F800FD1FE80FF91F20812B3219F02D32A1F1D3
:1003080065C09C012F5F3F4F220F331F220F331F01
:1003180041E050E04C0F5D1F240F351F880F991FD7
:10032800880F991FFA01E80FF91F408151816281F6
:100338007381F90180819181A281B381840F951F16
:10034800A61FB71F80839183A283B383472D612F94
:10035800CE014D960E949808472D612FCE01019637
:100368000E949307115032C0DC011196AA0FBB1FDF
:10037800AA0FBB1F21E030E02C0F3D1FA20FB31FB7
:10038800880F991F880F991FF901E80FF91F4081FD
:10039800518162817381CD90DD90ED90FC9013972F
:1003A8004C195D096E097F094D935D936D937C939C
:1003B8001397472D612FCE014D960E949808472D1F
:1003C800612FCE0101960E94930711501F5F71168D
:1003D80008F089CF69817A818B819C81AE014C5D5F
:1003E8005F4F0E94F30288E890E06C0130E8E32E4A
:1003F800AE014C5D5F4F8E2DB6010E9421082CE2A4
:1004080031E040E085E0F901DE019E96742F0E94FC
:10041800C8088E01025D1F4F21E042E08E2DB60113
:100428000E94B9074FEF5BE782E941505040804096
:10043800E1F700C0000003C000E010E0DDCEE29666
:100448000FB6F894DEBF0FBECDBFDF91CF911F91DD
:100458000F91FF90EF90DF90CF90BF90AF909F905B
:060468008F907F900895C3
:10046E002F923F924F926F927F928F92AF92BF9246
:10047E00CF92DF92EF92FF920F931F93CF93DF9362
:10048E00CDB7DEB72A970FB6F894DEBF0FBECDBF3D
:10049E00198261157105810509F484C04115510554
:1004AE0009F482C08A01688779878A870F2EF8E55A
:1004BE00CF2EF1E0DF2EF0E0EF2EF02DCA82DB82A0
:1004CE00EC82F884B984AA846D837E838F831B01AA
:1004DE00482E28E0220E311C411C59C041E0882DC7
:1004EE00B3010E94A6053FEF631A730A830AC6146E
:1004FE00D704E80499F740E06D817E818F810E94D8
:10050E00A6058FE39CE90197F1F700C000006A8011
:10051E007B808C80AE014F5F5F4F8E2DB6010E94A7
:10052E0014079981911106C0F301949187FC908173
:10053E00F8019083FFEFCF1ADF0AEF0A2FEF621A4E
:10054E00720A820AC214D304E40421F72A813B8181
:10055E004C812C5F3F4F4F4F2A833B834C832D8121
:10056E003E814F812F5F3F4F4F4F2D833E834F83F1
:10057E000F2EF8E6CF2EF1E0DF2EF0E0EF2EF02D6D
:10058E002A813B814C81C216D306E40671F0C884E1
:10059E00D984EA8434E0C30ED11CE11C6F2C7B2C71
:1005AE008A2C9CCF80E001C080E02A960FB6F8948A
:1005BE00DEBF0FBECDBFDF91CF911F910F91FF9088
:1005CE00EF90DF90CF90BF90AF908F907F906F9015
:0805DE004F903F902F9008950B
:1005E6003F924F925F926F927F928F929F92AF92BD
:1005F600BF92CF92DF92EF92FF920F931F93CF930A
:10060600DF934B015C01EA01209709F47DC010E0FD
:100616000F2EC12CFAECDF2EFAE9EF2EFBE3FF2EAC
:10062600F02D0F2EFAE04F2E512C612C712CF02D4F
:100636000F2EF0E33F2EF02DC501B401A701960160
:100646000E94DE072115310541055105D9F101E06A
:10065600010FFE01E10FF11D205D2083C501B401EC
:10066600A70196010E94DE074B015C01C701B60196
:10067600A30192010E94DE0782169306A406B50620
:1006860030F41E5FFE01E00FF11D308201C0102F15
:100696008AE0C816D104E104F10431F57E01E10EC9
:1006A600F11CC501B4012AE030E040E050E00E94B0
:1006B600DE07605DF70160831F5FC10FD11D1882E1
:1006C60081E023C0FAE08F169104A104B10460F41E
:1006D600FE01E10FF11D80E3880D80831F5FC10FCE
:1006E600D11D188281E011C0C701B601A301920194
:1006F6000E94DE0769017A012A303105410551055C
:1007060008F09ACF81E001C080E0DF91CF911F9180
:100716000F91FF90EF90DF90CF90BF90AF909F909A
:0E0726008F907F906F905F904F903F9008955E
:100734006F927F928F929F92AF92BF92CF92DF92ED
:10074400EF92FF920F931F93CF93DF93CDB7DEB752
:100754002B970FB6F894DEBF0FBECDBF7C018B0183
:10076400198299249394D12C88E790E03C0120E8E5
:10077400822E88E890E05C01E0E8CE2E01C0D92EFC
:10078400AE014F5F5F4F882DB3010E943702FFEF28
:100794002DEE82E0F15020408040E1F700C00000DF
:1007A4004981842F90E08E339105E8F4FC01E65DE5
:1007B400FF4F0C94F50883E2F801808328C08DE391
:1007C400F801808324C08AE2F801808320C08FE28C
:1007D400F80180831CC08BE2F801808318C08DE28D
:1007E400F801808314C08C2DB5010E946A0791E042
:1007F4009D0DE2E0F0E0EC0FFD1FED0DF11D898190
:10080400808319829110BBCF02C09110B9CF68E8E0
:1008140070E080E849810E946A07B701CE01029620
:100824000E94F0052B960FB6F894DEBF0FBECDBF25
:10083400DF91CF911F910F91FF90EF90DF90CF90B8
:0E084400BF90AF909F908F907F906F9008951F
:100852002F923F924F926F927F928F92CF92DF921E
:10086200EF9261157105810509F46BC06B01E82EE9
:100872000E9442088E2DB6016F5F7F4F8F4F0E94FC
:10088200420836018E2C22E0620E711C811C160178
:100892004E2C86E0280E311C411C882DB3010E948B
:1008A20042089FEF691A790A890A62147304840460
:1008B200A1F72FEF89EF90E0215080409040E1F7BF
:1008C20000C0000048E38E2DB6010E9441078FE16F
:1008D2009EE40197F1F700C0000048E38E2DB601B7
:1008E2000E94410787E592E00197F1F700C00000FE
:1008F20048E38E2DB6010E94410741E08E2DB601DC
:100902000E94410742E08E2DB6010E94410746E057
:100912008E2DB6010E9441074CE08E2DB6010E9439
:10092200410748E28E2DB6010E94410741E08E2D1B
:10093200B6010E94410740E88E2DB6010E94410790
:1009420001C080E0EF90DF90CF908F907F906F900A
:080952004F903F902F90089593
:10095A00CF93DF93A82FCB010097A10509F449C0D3
:10096A00FC012491A7FD2081269526952770FC017C
:10097A003491A7FD308135FB442740F935FF1FC06C
:10098A004130C9F53370E32FF0E0EE0FFF1FE05955
:10099A00FF4F0190F081E02D608141E050E0EA01D3
:1009AA0002C0CC0FDD1F2A95E2F79E01209526236F
:1009BA002083BC018A2F0E94040581E01DC0FC012E
:1009CA008491A7FD80818370E82FF0E0EE0FFF1F6E
:1009DA00E059FF4F0190F081E02D308181E090E0F5
:1009EA0002C0880F991F2A95E2F7832B808381E042
:0E09FA0003C080E001C080E0DF91CF9108953E
:100A0800A82FCB010097A10509F44AC0FC01249145
:100A1800A7FD2081269526952770FC013491A7FD16
:100A2800308135FF3FC037FB332730F9332319F0C6
:100A38003130E1F039C0FC018491A7FD80818370D9
:100A4800E82FF0E0EE0FFF1FE859FF4F0190F0810B
:100A5800E02D308181E090E002C0880F991F2A952F
:100A6800E2F780958323808381E00895FC018491D7
:100A7800A7FD80818370E82FF0E0EE0FFF1FE85993
:100A8800FF4F0190F081E02D308181E090E002C0BD
:100A9800880F991F2A95E2F7832B808381E00895B8
:0C0AA80080E0089580E0089580E008954B
:100AB400CF92DF92EF92CF93611571058105F1F129
:100AC4006B01E82E0E944208C82F8E2DB6016F5F7D
:100AD4007F4F8F4F0E944208C82B8E2DB6016E5F48
:100AE4007F4F8F4F0E944208C82B8E2DB6016D5F39
:100AF4007F4F8F4F0E944208C82B8E2DB6016C5F2A
:100B04007F4F8F4F0E944208C82B8E2DB6016B5F1A
:100B14007F4F8F4F0E944208C82B8E2DB6016A5F0B
:100B24007F4F8F4F0E944208C82B8E2DB601695FFC
:100B34007F4F8F4F0E9442088C2B01C080E0CF91E1
:080B4400EF90DF90CF900895BF
:100B4C00A82FCB010097A10509F440C0FC0124910A
:100B5C00A7FD20812695269527704423E1F041308E
:100B6C00B9F5FC018491A7FD80818370E82FF0E03A
:100B7C00EE0FFF1FE859FF4F0190F081E02D3081FF
:100B8C0081E090E002C0880F991F2A95E2F7832B31
:100B9C00808381E00895FC018491A7FD808183709E
:100BAC00E82FF0E0EE0FFF1FE859FF4F0190F081A6
:100BBC00E02D308181E090E002C0880F991F2A95CA
:100BCC00E2F780958323808381E0089580E0089587
:040BDC0080E0089518
:100BE000CF92DF92EF92FF920F931F93FC01DB01F4
:100BF000892B91F1109791F10081002389F13196B1
:100C00004D915D916D917C911397440F551F661F17
:100C1000771F6A017B01CC0CDD1CEE1CFF1CCC0C89
:100C2000DD1CEE1CFF1C4C0D5D1D6E1D7F1D10E0BC
:100C300000531109012E000C220B330B400F511FE2
:100C4000621F731F4D935D936D937C931397008187
:100C50000111D5CF81E005C080E003C080E001C074
:100C600081E01F910F91FF90EF90DF90CF9008955A
:100C70002F923F924F926F927F928F92CF92DF92FC
:100C8000EF9261157105810549F11B01482E3B0169
:100C9000882E6B01E82E84E0C80ED11CE11C882D43
:100CA000B3010E9442089FEF691A790A890AC614A3
:100CB000D704E804A1F7842C310188E0680E711C88
:100CC000811C8E2DB6010E94AD049FEFC91AD90A6E
:100CD000E90AC614D704E804A1F701C080E0EF9048
:100CE000DF90CF908F907F906F904F903F902F909C
:020CF000089565
:100CF200CF93DF930F92CDB7DEB7611571058105F2
:100D020041F19B01482FFB01849147FD8081837053
:100D120099819C7F892B8983F901949147FD908168
:100D22009C71837E892B8F7D8983F901949147FD84
:100D3200908195FB992790F990FB86F98F778983AB
:100D4200BE016F5F7F4F80E841E00E94A60581E00F
:0C0D520001C080E00F90DF91CF91089568
:100D5E00CF93DF930F92CDB7DEB761157105810585
:100D6E0039F19B01482FFB01849147FD80818370EF
:100D7E0099819C7F892B8983F901949147FD9081FC
:100D8E009C71837E892B8F7D8983F901949147FD18
:100D9E00908195FB992790F990FB86F98F7789833F
:100DAE00BE016F5F7F4F80E80E94420881E001C064
:0A0DBE0080E00F90DF91CF910895BF
:100DC800CF92DF92EF92CF936B01E82EC42F417040
:100DD8006E5F7F4F8F4F0E94A605C1FB442740F9E5
:100DE8008E2DB6016D5F7F4F8F4F0E94A605C2FB07
:100DF800442740F98E2DB6016C5F7F4F8F4F0E94BC
:100E0800A605C3FB442740F98E2DB6016B5F7F4FC3
:100E18008F4F0E94A605CF91EF90DF90CF90089555
:100E2800A82FCB010097A10521F14115510519F112
:100E3800FC012491A7FD2081269526952770FC01A9
:100E48008491A7FD80818370E82FF0E0EE0FFF1FEB
:100E5800E05AFF4F0190F081E02D808190E002C0C0
:100E6800959587952A95E2F78170FA01808381E04C
:0A0E7800089580E0089580E00895D9
:100E8200CF92DF92EF92CF93611571058105D9F070
:100E9200C42F6B01E82E40E00E94A6054C2F42951C
:100EA2004F708E2DB6010E94E4068E2DB6010E946F
:100EB20062084C2F8E2DB6010E94E4068E2DB601DB
:100EC2000E94620801C080E0CF91EF90DF90CF9046
:020ED200089581
:100ED400CF92DF92EF92CF93611571058105D9F01E
:100EE400C42F6B01E82E41E00E94A6054C2F4295C9
:100EF4004F708E2DB6010E94E4068E2DB6010E941D
:100F040062084C2F8E2DB6010E94E4068E2DB60188
:100F14000E94620801C080E0CF91EF90DF90CF90F3
:020F240008952E
:100F26000F931F93461788F0FC0124E0629FE00DA3
:100F3600F11D1124048115812681378100831183D7
:100F4600228333836F5F461778F7FC0124E0429FC4
:100F5600E00DF11D112443E250E060E070E04083B3
:0C0F66005183628373831F910F910895E3
:100F7200CF92DF92EF920F931F93CF93DF9361157E
:100F82007105810589F0E8016B01E82E0E940008D5
:100F92004881442351F021968E2DB6010E946A07A2
:100FA20049914111F9CF01C080E0DF91CF911F91AA
:0A0FB2000F91EF90DF90CF900895AB
:100FBC00A1E21A2EAA1BBB1BFD010DC0AA1FBB1F51
:100FCC00EE1FFF1FA217B307E407F50720F0A21BC3
:100FDC00B30BE40BF50B661F771F881F991F1A9430
:100FEC0069F760957095809590959B01AC01BD015A
:040FFC00CF01089584
:10100000423071F018F4413031F019C0433069F0CA
:10101000443081F014C04FE7420F0E944107089509
:101020004FEB420F0E944107089543E9420F0E948F
:101030004107089543ED420F0E944107089581E062
:02104000089511
:10104200CF92DF92EF92CF93DF93EA0161157105A0
:10105200810571F04881442369F06B01E82E2196E5
:101062008E2DB6010E946A0749914111F9CF03C042
:1010720080E001C081E0DF91CF91EF90DF90CF90CF
:021082000895CF
:10108400CF92DF92EF92CF9361157105810591F0B4
:101094006B01E82E0E94AD04C82FF6014491E7FCD1
:1010A400408146FB442740F98E2DB6010E94A605D7
:1010B4008C2B01C080E0CF91EF90DF90CF9008950A
:1010C400CF92DF92EF926B01E82E9FEFC91AD90AF3
:1010D400E90A41E08E2DB6010E94A6058AE18A95AF
:1010E400F1F700C040E08E2DB6010E94A605EF90F6
:0610F400DF90CF9008958B
:1010FA00CF936EE870E080E80E94AF06C82F68E8D8
:10110A0070E080E80E942904C82B60E870E080E85B
:10111A000E945A05C82B68E770E080E80E943806EA
:06112A008C2BCF9108950B
:101130009C01461740F0F901E60FF11D9181908363
:101140006F5F4617C0F7F901E40FF11D83E280835A
:02115000089500
:10115200DB018F939F930E94D508BF91AF91A29F0D
:10116200800D911DA39F900DB29F900D11240895A3
:10117200A29FB001B39FC001A39F700D811D1124D6
:0E118200911DB29F700D811D1124911D0895C5
:10119000992777FD05C005900D920197E1F7089515
:0A11A00001900D920197E1F7089508
:1011AA000E94B908A59F900DB49F900DA49F800D31
:0611BA00911D11240895AF
:1011C000EC010E9400090E94FF08CE010E94010963
:0611D000CE010E94FD08A3
:1011D6000E947D086EE870E080E80E9479060E9411
:0411E600B400FFCF83
:0C11EA00EE0FFF1F0590F491E02D09941A
:0411F6000C94000055
:0411FA000E949400BB
:0211FE00089552
:0212000008954F
:0212020008954D
:08120400390036003300300010
:08120C003B0038003500320000
:081214003A00370034003100FC
:08121C0056524E4ABFBBB7AFAA
:081224004C4855590105091160
:06122C000C080105091188
:0112320014A7
:00000001FF
